:020000040800F2
:1000000000000120B52800088F1A0008951A000882
:100010009B1A0008A11A0008A71A00080000000097
:10002000000000000000000000000000AD1A000801
:10003000B91A000800000000C51A0008D11A00080B
:100040000529000805290008DD1A0008052900080F
:1000500005290008052900080529000805290008C8
:10006000052900080529000805290008F11A0008DB
:1000700005290008052900080529000805290008A8
:100080000529000805290008052900080529000898
:1000900000000000052900080529000805290008BE
:1000A0000529000805290008052900080529000878
:1000B0000529000805290008052900080529000868
:1000C0000529000805290008052900080529000858
:1000D000051B000805290008052900080529000856
:1000E00005290008191B0008291B0008052900081C
:1000F0000529000800000000000000000529000894
:1001000005290008052900083D1B000805290008ED
:100110000529000805290008052900080529000807
:1001200005290008052900080529000805290008F7
:0801300005290008052900085B
:1001400010B5054C237833B9044B13B10448AFF311
:1001500000800123237010BD9411002000000000D6
:10016000601D010808B5034B1BB103490348AFF3F9
:10017000008008BD0000000098110020601D0108EB
:10018000034613F8012B002AFBD1181A01387047D7
:1001900001F0FF01102A2BDB10F0070F08D010F838
:1001A000013B013A8B422DD010F0070F42B3F6D13C
:1001B000F0B441EA012141EA014122F007047FF055
:1001C00000070023F0E80256083C85EA010586EAAC
:1001D000010685FA47F5A3FA87F586FA47F6A5FAE8
:1001E00087F68EB9EED1F0BC01F0FF0102F00702F4
:1001F00032B110F8013B013A83EA010313B1F8D19F
:100200000020704701387047002D06BF354603387F
:10021000073815F0010F07D1013015F4807F02BFB8
:10022000013015F4C03F0130F0BC0138704700BF09
:1002300081F0004102E000BF83F0004330B54FEA97
:1002400041044FEA430594EA050F08BF90EA020F04
:100250001FBF54EA000C55EA020C7FEA645C7FEA97
:10026000655C00F0E2804FEA5454D4EB5555B8BFBA
:100270006D420CDD2C4480EA020281EA030382EA2B
:10028000000083EA010180EA020281EA0303362DBD
:1002900088BF30BD11F0004F4FEA01314FF4801C90
:1002A0004CEA113102D0404261EB410113F0004FA2
:1002B0004FEA03334CEA133302D0524263EB430359
:1002C00094EA050F00F0A780A4F10104D5F1200EF7
:1002D0000DDB02FA0EFC22FA05F2801841F1000152
:1002E00003FA0EF2801843FA05F359410EE0A5F126
:1002F00020050EF1200E012A03FA0EFC28BF4CF057
:10030000020C43FA05F3C01851EBE37101F000450C
:1003100007D54FF0000EDCF1000C7EEB00006EEB19
:100320000101B1F5801F1BD3B1F5001F0CD34908A3
:100330005FEA30004FEA3C0C04F101044FEA4452FA
:1003400012F5800F80F09A80BCF1004F08BF5FEA81
:10035000500C50F1000041EB045141EA050130BD61
:100360005FEA4C0C404141EB0101013C28BFB1F573
:10037000801FE9D291F0000F04BF01460020B1FABE
:1003800081F308BF2033A3F10B03B3F120020CDA91
:100390000C3208DD02F1140CC2F10C0201FA0CF06F
:1003A00021FA02F10CE002F11402D8BFC2F1200CD4
:1003B00001FA02F120FA0CFCDCBF41EA0C0190408A
:1003C000E41AA2BF01EB0451294330BD6FEA0404D3
:1003D0001F3C1CDA0C340EDC04F11404C4F12002BE
:1003E00020FA04F001FA02F340EA030021FA04F3D0
:1003F00045EA030130BDC4F10C04C4F1200220FA27
:1004000002F001FA04F340EA0300294630BD21FA64
:1004100004F0294630BD94F0000F83F4801306BF2A
:1004200081F480110134013D4EE77FEA645C18BF1E
:100430007FEA655C29D094EA050F08BF90EA020FB5
:1004400005D054EA000C04BF1946104630BD91EAAD
:10045000030F1EBF0021002030BD5FEA545C05D1B0
:100460004000494128BF41F0004130BD14F58004EF
:100470003CBF01F5801130BD01F0004545F0FE4163
:1004800041F470014FF0000030BD7FEA645C1ABF98
:10049000194610467FEA655C1CBF0B46024650EACF
:1004A000013406BF52EA033591EA030F41F40021FB
:1004B00030BD00BF90F0000F04BF0021704730B581
:1004C0004FF4806404F132044FF000054FF0000156
:1004D00050E700BF90F0000F04BF0021704730B517
:1004E0004FF4806404F1320410F0004548BF4042EC
:1004F0004FF000013EE700BF42004FEAE2014FEA41
:1005000031014FEA02701FBF12F07F4393F07F4F1B
:1005100081F06051704732F07F4208BF704793F01E
:100520007F4F04BF41F40021704730B54FF4607431
:1005300001F0004521F000411CE700BF50EA010234
:1005400008BF704730B54FF000050AE050EA0102DD
:1005500008BF704730B511F0004502D5404261EB4D
:1005600041014FF4806404F132045FEA915C3FF48E
:10057000D8AE4FF003025FEADC0C18BF03325FEA2B
:10058000DC0C18BF033202EBDC02C2F1200300FADC
:1005900003FC20FA02F001FA03FE40EA0E0021FA01
:1005A00002F11444BDE600BF70B54FF0FF0C4CF4EF
:1005B000E06C1CEA11541DBF1CEA135594EA0C0FA1
:1005C00095EA0C0F00F0DEF82C4481EA030621EADC
:1005D0004C5123EA4C5350EA013518BF52EA033517
:1005E00041F4801143F4801338D0A0FB02CE4FF0C9
:1005F0000005E1FB02E506F00042E0FB03E54FF0F9
:100600000006E1FB03569CF0000F18BF4EF0010EF0
:10061000A4F1FF04B6F5007F64F5407404D25FEAEC
:100620004E0E6D4146EB060642EAC62141EA55519F
:100630004FEAC52040EA5E504FEACE2EB4F1FD0CE1
:1006400088BFBCF5E06F1ED8BEF1004F08BF5FEA5F
:10065000500E50F1000041EB045170BD06F0004611
:1006600046EA010140EA020081EA0301B4EB5C04BE
:10067000C2BFD4EB0C0541EA045170BD41F48011B6
:100680004FF0000E013C00F3AB8014F1360FDEBFDB
:10069000002001F0004170BDC4F10004203C35DAB7
:1006A0000C341BDC04F11404C4F1200500FA05F33A
:1006B00020FA04F001FA05F240EA020001F00042DB
:1006C00021F0004110EBD37021FA04F642EB060151
:1006D0005EEA430E08BF20EAD37070BDC4F10C047B
:1006E000C4F1200500FA04F320FA05F001FA04F23F
:1006F00040EA020001F0004110EBD37041F100012B
:100700005EEA430E08BF20EAD37070BDC4F1200535
:1007100000FA05F24EEA020E20FA04F301FA05F29D
:1007200043EA020321FA04F001F0004121FA04F245
:1007300020EA020000EBD3705EEA430E08BF20EA15
:10074000D37070BD94F0000F0FD101F0004640004F
:1007500041EB010111F4801F08BF013CF7D041EAD1
:10076000060195F0000F18BF704703F000465200D5
:1007700043EB030313F4801F08BF013DF7D043EAA6
:100780000603704794EA0C0F0CEA135518BF95EA5C
:100790000C0F0CD050EA410618BF52EA4306D1D1E3
:1007A00081EA030101F000414FF0000070BD50EA02
:1007B000410606BF1046194652EA430619D094EA8C
:1007C0000C0F02D150EA013613D195EA0C0F05D176
:1007D00052EA03361CBF104619460AD181EA0301CA
:1007E00001F0004141F0FE4141F470014FF0000082
:1007F00070BD41F0FE4141F4780170BD70B54FF01D
:10080000FF0C4CF4E06C1CEA11541DBF1CEA13559C
:1008100094EA0C0F95EA0C0F00F0A7F8A4EB05047E
:1008200081EA030E52EA03354FEA013100F0888075
:100830004FEA03334FF0805545EA131343EA12633E
:100840004FEA022245EA111545EA10654FEA0026F3
:100850000EF000419D4208BF964244F1FD0404F5AC
:10086000407402D25B084FEA3202B61A65EB030508
:100870005B084FEA32024FF480104FF4002CB6EBC5
:10088000020E75EB030E22BFB61A754640EA0C0045
:100890005B084FEA3202B6EB020E75EB030E22BF85
:1008A000B61A754640EA5C005B084FEA3202B6EBC6
:1008B000020E75EB030E22BFB61A754640EA9C0085
:1008C0005B084FEA3202B6EB020E75EB030E22BF55
:1008D000B61A754640EADC0055EA060E18D04FEA13
:1008E000051545EA16754FEA06164FEAC30343EAB3
:1008F00052734FEAC2025FEA1C1CC0D111F4801F80
:100900000BD141EA00014FF000004FF0004CB6E778
:1009100011F4801F04BF01430020B4F1FD0C88BF17
:10092000BCF5E06F3FF6AFAEB5EB030C04BFB6EB22
:10093000020C5FEA500C50F1000041EB045170BD15
:100940000EF0004E4EEA113114EB5C04C2BFD4EB42
:100950000C0541EA045170BD41F480114FF0000EC6
:10096000013C90E645EA060E8DE60CEA135594EA42
:100970000C0F08BF95EA0C0F3FF43BAF94EA0C0F45
:100980000AD150EA01347FF434AF95EA0C0F7FF4BA
:1009900025AF104619462CE795EA0C0F06D152EA0E
:1009A00003353FF4FDAE1046194622E750EA4106F2
:1009B00018BF52EA43067FF4C5AE50EA41047FF403
:1009C0000DAF52EA43057FF4EBAE12E74FF0FF3C68
:1009D00006E000BF4FF0010C02E000BF4FF0010C39
:1009E0004DF804CD4FEA410C7FEA6C5C4FEA430CB2
:1009F00018BF7FEA6C5C1BD001B050EA410C0CBF01
:100A000052EA430C91EA030F02BF90EA020F002062
:100A1000704710F1000F91EA030F58BF994208BFC9
:100A200090422CBFD8176FEAE37040F00100704786
:100A30004FEA410C7FEA6C5C02D150EA013C07D1DD
:100A40004FEA430C7FEA6C5CD6D152EA033CD3D028
:100A50005DF8040B704700BF8446104662468C4622
:100A60001946634600E000BF01B5FFF7B7FF002855
:100A700048BF10F1000F01BD4DF808EDFFF7F4FF7E
:100A80000CBF012000205DF808FB00BF4DF808ED09
:100A9000FFF7EAFF34BF012000205DF808FB00BF2C
:100AA0004DF808EDFFF7E0FF94BF012000205DF84E
:100AB00008FB00BF4DF808EDFFF7CEFF94BF012003
:100AC00000205DF808FB00BF4DF808EDFFF7C4FFFC
:100AD00034BF012000205DF808FB00BF4FEA410C45
:100AE0007FEA6C5C02D150EA013C0AD14FEA430C28
:100AF0007FEA6C5C02D152EA033C02D14FF0000065
:100B000070474FF0010070474FEA410212F50012A2
:100B100015D211D56FF47873B3EB625212D94FEA44
:100B2000C12343F0004343EA505311F0004F23FA2E
:100B300002F018BF404270474FF00000704750EA83
:100B4000013005D111F0004008BF6FF00040704740
:100B50004FF00000704700BF4A0011D212F500129A
:100B600011D20DD56FF47873B3EB62520ED44FEA05
:100B7000C12343F0004343EA505323FA02F0704785
:100B80004FF00000704750EA013002D14FF0FF30C3
:100B900070474FF0000070474FEA4102B2F1E04366
:100BA00024BFB3F5001CDCF1FE5C0DD901F0004C54
:100BB0004FEAC0024CEA5070B2F1004F40EB8300A4
:100BC00008BF20F00100704711F0804F21D113F1D0
:100BD0003872BCBF01F00040704741F480114FEA09
:100BE0005252C2F11802C2F1200C10FA0CF320FA92
:100BF00002F018BF40F001004FEAC1234FEAD323AF
:100C000003FA0CFC40EA0C0023FA02F34FEA430318
:100C1000CCE77FEA625307D150EA01331EBF4FF0A1
:100C2000FE4040F44000704701F0004040F0FE40BC
:100C300040F40000704700BF53B94AB9002908BF0B
:100C400000281CBF4FF0FF314FF0FF3000F0ACB96F
:100C5000ADF1080C6DE904CE00F03EF8DDF804E0DB
:100C6000DDE9022304B0704738B505460C46284636
:100C7000214600220023FFF709FF28B92846214614
:100C8000BDE8384000F00AB8284604F1004100F001
:100C900005F8404261EB410138BD00BFD0B50C4BB7
:100CA000002206460F46FFF77FFCFFF755FF04467C
:100CB000FFF700FC074B0022FFF776FC02460B46CD
:100CC00030463946FFF7B8FAFFF746FF2146D0BD58
:100CD0000000F03D0000F0412DE9F047089E0D4670
:100CE00004468846002B4DD18A42944668D9B2FA10
:100CF00082F252B101FA02F3C2F1200120FA01F1AD
:100D00000CFA02FC41EA030894404FEA1C45210C0E
:100D1000B8FBF5FE1FFA8CF705FB1E8341EA03437F
:100D20000EFB07F199420BD91CEB03030EF1FF30C8
:100D300080F01E81994240F21B81AEF1020E6344A5
:100D40005B1AA4B2B3FBF5F005FB103344EA03448D
:100D500000FB07F7A7420AD91CEB040400F1FF339C
:100D600080F00881A74240F2058164440238E41B08
:100D700040EA0E4000211EB1D4400023C6E90043E2
:100D8000BDE8F0878B4208D9002E00F0EE800021EC
:100D9000C6E900050846BDE8F087B3FA83F10029EB
:100DA0004AD1AB4202D3824200F2F980841A65EB49
:100DB000030301209846002EE2D0C6E90048DFE791
:100DC00002B9FFDEB2FA82F2002A40F09180A1EB74
:100DD0000C054FEA1C471FFA8CFE0121B5FBF7F307
:100DE00007FB1350250C45EA00450EFB03F0A84213
:100DF00008D91CEB050503F1FF3802D2A84200F226
:100E0000CB8043462D1AA4B2B5FBF7F007FB105573
:100E100044EA05440EFB00FEA64508D91CEB040479
:100E200000F1FF3502D2A64500F2BB802846A4EBB4
:100E30000E0440EA03409EE7C1F120078B4022FAEE
:100E400007FC4CEA030C20FA07F405FA01F31C43F3
:100E5000FD404FEA1C4900FA01F3B5FBF9F8200CFC
:100E60001FFA8CFE09FB185540EA054508FB0EF0F9
:100E7000A84202FA01F20BD91CEB050508F1FF3A72
:100E800080F08880A84240F28580A8F1020865447D
:100E90002D1AA4B2B5FBF9F009FB105544EA05453B
:100EA00000FB0EFEAE4508D91CEB050500F1FF3432
:100EB0006CD2AE456AD90238654440EA0840A0FBCE
:100EC0000294A5EB0E05A542C846A64656D353D0BC
:100ED0005EB1B3EB080265EB0E0505FA07F722FADF
:100EE00001F3CD401F43C6E900750021BDE8F0873E
:100EF000C2F1200320FA03F10CFA02FC25FA03F3F5
:100F000095400D434FEA1C471FFA8CFEB3FBF7F1E7
:100F100007FB11302B0C43EA004301FB0EF0984213
:100F200004FA02F408D91CEB030301F1FF382FD2B5
:100F300098422DD9023963441B1AADB2B3FBF7F0C6
:100F400007FB103345EA034500FB0EF3AB4208D91B
:100F50001CEB050500F1FF3816D2AB4214D902385C
:100F60006544ED1A40EA014138E73146304607E76B
:100F70008646E5E61846FAE64B45A9D2B9EB0208E3
:100F800064EB0C0E0138A3E74046EAE7204694E7FD
:100F90004146D1E7D0467BE7023B654432E708464D
:100FA00009E76444023842E7704700BF80B485B067
:100FB00000AF78604FF0B0439A6C4FF0B0417B685F
:100FC00013438B644FF0B0439A6C7B681340FB6013
:100FD000FB6800BF1437BD4680BC704780B500AFCA
:100FE0000420FFF7E3FF0120FFF7E0FF00220221CA
:100FF0000B2001F080FE0B2001F097FE00BF80BDAA
:1010000080B485B000AF78604FF0B043DA6C4FF039
:10101000B0417B681343CB644FF0B043DA6C7B681C
:101020001340FB60FB6800BF1437BD4680BC7047AF
:1010300080B586B000AF3B1D00221A605A609A60EE
:10104000DA601A610120FFF7DBFF0420FFF7D8FF09
:101050000220FFF7D5FF01224FF48041574802F0EC
:10106000B0FC002231214FF0904002F0AAFC4FF476
:1010700080437B600123BB600023FB6003233B6153
:101080003B1D19464D4802F057FA31237B6001237E
:10109000BB600023FB6003233B613B1D19464FF0FF
:1010A000904002F049FA4FF400537B604FF4041370
:1010B000BB600123FB603B1D1946404802F03CFA2F
:1010C00001224FF402414FF0904002F07AFC0122DD
:1010D00048F21861394802F074FC00224FF4804154
:1010E000364802F06EFC00224FF480614FF09040D1
:1010F00002F067FC01220221314802F062FC4FF449
:1011000002437B600123BB600123FB6002233B6140
:101110003B1D19464FF0904002F00EFA48F218635A
:101120007B600123BB600123FB6002233B613B1D0D
:101130001946224802F000FA4FF480437B601123E5
:10114000BB600023FB6002233B613B1D19461B482B
:1011500002F0F2F94FF480637B601123BB6000233F
:10116000FB6002233B613B1D19464FF0904002F0AB
:10117000E3F902237B600123BB600123FB600223B0
:101180003B613B1D19460E4802F0D6F90C237B60EB
:101190000023BB600223FB603B1D19464FF09040CB
:1011A00002F0CAF900220021292001F0A4FD292023
:1011B00001F0BBFD00BF1837BD4680BD00040048EC
:1011C0000008004880B483B000AF78604FF0B043AF
:1011D000D3F8903023F018024FF0B0417B681343EE
:1011E000C1F8903000BF0C37BD4680BC704700008E
:1011F00080B500AF01F058FC00F04EF8FFF718FF83
:101200000AF04DFB01224FF480614FF0904002F054
:10121000D8FB01224FF480411D4802F0D2FB00F0C0
:101220001DFA1C4B01221A701A4B1B78184600F04D
:101230008DF804214FF0904002F0ACFB0346002BE8
:1012400001D000F047FA08214FF0904002F0A2FBD5
:101250000346002BEDD00F4B1B78042B06D80D4B0B
:101260001B780133DAB20B4B1A7002E0094B0122F2
:101270001A70084B1B78184600F068F800BF082168
:101280004FF0904002F086FB0346002BF7D1D0E7E9
:1012900000040048B111002080B59AB000AF07F1FA
:1012A00020034822002118460CF0F6F807F1080345
:1012B00000221A605A609A60DA601A615A6102F07C
:1012C000B9FB0020FFF77EFF1F4B1B6823F4C063B0
:1012D0001D4A43F4007313601B4B1B6803F4C06387
:1012E0007B607B6824233B628123FB6201233B6498
:1012F00000237B64B023BB640023FB6407F120035D
:10130000184602F0E3FE0346002B01D000F0C2FABB
:101310004F23BB600023FB6000233B6100237B6104
:101320000023BB610023FB6107F10803022118467B
:1013300003F068FA0346002B01D000F0ABFA00BFBF
:101340006837BD4680BD00BF0004005880B582B03C
:1013500000AF0346FB7101224FF400714FF0904043
:1013600002F02FFB01224FF48061B94802F029FB03
:1013700001220221B74802F024FB01224FF4007140
:10138000B34802F01EFB01224FF400414FF09040A1
:1013900002F017FB01224FF40041AD4802F011FBAF
:1013A00001221021AA4802F00CFB01220821A848C2
:1013B00002F007FBA84B1B78002B05D000224FF44E
:1013C0000071A34802F0FDFAFB79092B00F2398184
:1013D00001A252F823F000BF0114000849140008CC
:1013E0005F1400089B140008D314000803150008BC
:1013F0003F15000889150008A9150008FD1500080B
:1014000000224FF400714FF0904002F0DAFA00220F
:101410004FF480618E4802F0D4FA002202218D48F8
:1014200002F0CFFA00224FF400414FF0904002F05A
:10143000C8FA00221021864802F0C3FA00220821CF
:10144000834802F0BEFAFDE000220821804802F045
:10145000B8FA002202217F4802F0B3FAF2E000223B
:1014600010217B4802F0ADFA00220821784802F0F2
:10147000A8FA00224FF40041754802F0A2FA0022B7
:101480004FF400714FF0904002F09BFA00224FF4AD
:1014900080616F4802F095FAD4E0002210216C4878
:1014A00002F08FFA00220821694802F08AFA00222D
:1014B0000221684802F085FA00224FF480616448F6
:1014C00002F07FFA00224FF40041614802F079FAFD
:1014D000B8E000224FF400414FF0904002F071FA62
:1014E00000224FF400415A4802F06BFA0022082112
:1014F000574802F066FA00220221564802F061FACB
:10150000A0E000221021524802F05BFA00224FF4C2
:1015100000414FF0904002F054FA00224FF4004195
:101520004B4802F04EFA002202214A4802F049FAE2
:1015300000224FF48061464802F043FA82E0002224
:101540001021434802F03DFA00224FF400414FF0D1
:10155000904002F036FA00224FF400413C4802F07D
:1015600030FA00224FF400714FF0904002F029FA57
:1015700000224FF48061364802F023FA0022022153
:10158000344802F01EFA5DE000221021304802F0DB
:1015900018FA002208212E4802F013FA0022022134
:1015A0002C4802F00EFA4DE000224FF400714FF08B
:1015B000904002F006FA00224FF48061244802F0C5
:1015C00000FA00220221234802F0FBF900224FF426
:1015D00000414FF0904002F0F4F900224FF4004136
:1015E0001B4802F0EEF900221021194802F0E9F937
:1015F00000220821164802F0E4F923E0002202212B
:10160000144802F0DEF900224FF400414FF0904000
:1016100002F0D7F900224FF400410D4802F0D1F951
:10162000002210210A4802F0CCF9002208210848C3
:1016300002F0C7F900224FF48061054802F0C1F9B9
:1016400000E000BF002318460837BD4680BD00BF3C
:101650000004004800080048B011002080B500AF29
:1016600001224FF480614FF0904002F0AAF901226C
:101670004FF48041164802F0A4F900224FF4806133
:101680004FF0904002F09DF94FF4FA7000F03EFBED
:1016900001224FF480614FF0904002F092F96420F3
:1016A00000F034FB00224FF48041094802F089F930
:1016B0004FF4FA7000F02AFB01224FF480410448F5
:1016C00002F07FF9642000F021FB00BF80BD00BF65
:1016D0000004004880B58EB004AF002387F827309F
:1016E00000233B6107F1140300221A605A609A60DC
:1016F0005B4B1B883B625B4B1B88BB810023BB732E
:1017000007F10C030A221946386A0BF0B5FE3B6A52
:10171000632B09DC3B6A092B06DD7B7BBB733B7BC0
:101720007B7330233B7308E03B6A092B05DC3B7B72
:10173000BB7330237B7330233B734B4A3B6A52F8B5
:1017400023304A4A1360494B1B680093484B0122DF
:10175000002100200BF0D6FB3B6A184600F0D6FAB9
:101760003F4B1B881A46434B1A603E4B1B883B81FC
:101770000023BB723F4B1B6807F108010A22184681
:101780000BF07AFE3B4B1B68632B0ADC394B1B6862
:10179000092B06DD7B7ABB723B7A7B7230233B726E
:1017A00014E0344B1B68092B06DC3B7ABB723023F8
:1017B0007B7230233B7209E02E4B1B68002B05D156
:1017C0003023BB7230237B7230233B7200233B609B
:1017D00000237B60254B1A683B46274918460CF0CE
:1017E000CFFC244B1B68204A52F82330234A136055
:1017F000204B1B68214A126801920093204B012262
:10180000002100200BF07EFB1E4B1B781A461E4B5E
:101810001B78194607F1100007F1080302933B46B5
:10182000019307F10C0300930B4618490CF0A8FC38
:1018300000BF07F110030093154B01220021002087
:101840000BF060FB07F1100318460AF015F90AF0D7
:101850002EF897F8273018462837BD4680BD00BFC0
:10186000C0110020381E010804000020B41100201F
:10187000E41D0108BC110020F81D0108B81100206A
:10188000FC1D010800000020B1110020141E0108F9
:10189000201E010880B400AF72B600BFFEE780B41E
:1018A00000AF4FF0B043D3F890304FF0B04243F464
:1018B0000043C2F8903000BFBD4680BC704780B482
:1018C00085B000AF78604FF0B0439A6D4FF0B041F3
:1018D0007B6813438B654FF0B0439A6D7B68134070
:1018E000FB60FB6800BF1437BD4680BC704700003A
:1018F00080B58CB000AF3B1D2C22002118460BF0A8
:10190000CBFD224B224A1A60204B1F229A601F4BAC
:1019100000221A611D4B00225A611C4B00229A6161
:101920001A4B4FF08042DA61184B00221A62174BB3
:101930004FF480725A62154803F020FC0346002BD6
:1019400001D0FFF7A7FF114803F00EFF0346002B5D
:1019500001D0FFF79FFF00233B620023BB60002301
:10196000BB614FF00053FB614FF48073FB623B1D82
:1019700000221946054803F07BFC0346002B01D0EA
:10198000FFF788FF00BF3037BD4680BDC41100207F
:101990000028004080B590B000AF786007F10803E0
:1019A0003822002118460BF077FD7B681B68164A29
:1019B000934225D14FF48033BB604FF48073FB63B7
:1019C00007F10803184603F0BFFA0346002B01D0C5
:1019D000FFF760FFFFF763FF4FF48060FFF76FFFD3
:1019E00000220021022001F086F9022001F09DF979
:1019F000002200212A2001F07EF92A2001F095F929
:101A000000BF4037BD4680BD0028004080B400AF15
:101A1000034B0122C3F8882000BFBD4680BC70473D
:101A20000004005880B400AF00BFBD4680BC7047C2
:101A300080B400AF00BFBD4680BC704780B500AF2A
:101A400001F052F8FFF7E2FF012002F085F800BF35
:101A500080BD80B500AF01F055F800F0D5FE00BFA5
:101A600080BD80B500AF01F03FF80121002001F0FA
:101A7000EFFF00BF80BD80B500AF01F043F800BFAD
:101A800080BD80B400AF00BFBD4680BC704780B44D
:101A900000AFFEE780B400AFFEE780B400AFFEE722
:101AA00080B400AFFEE780B400AFFEE780B400AFC3
:101AB00000BFBD4680BC704780B400AF00BFBD46CC
:101AC00080BC704780B400AF00BFBD4680BC70478B
:101AD00080B400AF00BFBD4680BC704780B500AF8A
:101AE000024803F07DFE00BF80BD00BFC41100208E
:101AF00080B500AF024801F0AFFB00BF80BD00BF62
:101B0000A812002080B500AF024804F0C9FC00BF55
:101B100080BD00BF1812002080B500AF4FF4005008
:101B200001F066FF00BF80BD80B500AF024803F042
:101B300007FD00BF80BD00BFC411002080B500AF0D
:101B4000024804F0B5F900BF80BD00BFFC110020C1
:101B500080B485B000AF78604FF0B0435A6E4FF05C
:101B6000B0417B6813434B664FF0B0435A6E7B68BD
:101B70001340FB60FB6800BF1437BD4680BC704754
:101B800080B500AF064B08221A60054803F014FF29
:101B90000346002B01D0FFF77DFE00BF80BD00BFD4
:101BA000FC11002080B582B000AF78600120FFF703
:101BB000CFFF00220021322001F09DF8322001F0F9
:101BC000B4F800BF0837BD4680BD80B483B000AF15
:101BD00078604FF0B0439B6823F400424FF0B0416F
:101BE0007B6813438B6000BF0C37BD4680BC7047D9
:101BF00080B500AF0020FFF7E8FF0AF0D7FE0C4BDE
:101C000001221A7000F0BAF80BF060F909480BF0E5
:101C1000F9F902200BF004FA0AF07CF90121022004
:101C20000AF0B8F9012102200AF084F900BF80BD52
:101C300008120020451C000880B500AF0AF0DAF950
:101C400000BF80BD80B586B002AF7860396007F113
:101C5000080318460AF078FABB68B7F90C2000921E
:101C6000074A1021786800F01DF87868FEF788FAB6
:101C700003469AB23B681A8000BF1037BD4680BD4C
:101C8000E41E010880B500AF012104200AF052F9DA
:101C900000BF80BD80B500AF002104200AF04AF9E2
:101CA00000BF80BD0CB480B584B000AF78603960EF
:101CB00007F11C03FB603968FB68BA6978680AF0B1
:101CC0008FFB00BF1037BD46BDE8804002B07047B3
:101CD00080B483B000AF7860002318460C37BD464F
:101CE00080BC704780B582B000AF00237B60064B9C
:101CF0001B78002B02D000F023FA78607B6818462E
:101D00000837BD4680BD00BF0812002080B582B0F4
:101D100000AF78607B68184600F099FA00BF08377A
:101D2000BD4680BD80B485B000AF78604FF0B04351
:101D3000DA6C4FF0B0417B681343CB644FF0B04393
:101D4000DA6C7B681340FB60FB6800BF1437BD464C
:101D500080BC704780B483B000AF7860064BD3F886
:101D6000902005497B681343C1F8903000BF0C37C1
:101D7000BD4680BC704700BF0008005880B586B0E3
:101D800000AF4FF48040FFF7E5FF00F0C9FE00F020
:101D9000CDFE00F0D1FE3B1D00221A605A609A6011
:101DA000DA601A610123BB600023FB6003233B61FF
:101DB0000120FFF7B7FF0220FFF7B4FF0220FFF773
:101DC000B1FF0220FFF7AEFF01237B603B1D1946E8
:101DD0004FF0904001F0B0FB08237B603B1D19469B
:101DE000154801F0A9FB10237B603B1D19461248E2
:101DF00001F0A2FB4FF480637B603B1D19460E4847
:101E000001F09AFB002201214FF0904001F0D9FD32
:101E100000220821084801F0D4FD002210210648C4
:101E200001F0CFFD00224FF48061034801F0C9FDAD
:101E300000BF1837BD4680BD0004004880B400AF25
:101E400001231846BD4680BC704780B582B000AF04
:101E5000786039600BF0CEFA034616221A604FF014
:101E6000FF3318460837BD4680BD80B582B000AF4D
:101E700078604FF0FF317868FFF7E7FFFEE780B545
:101E800086B000AFF860B9607A6000237B610AE039
:101E9000AFF300800146BB685A1CBA60CAB21A7020
:101EA0007B6901337B617A697B689A42F0DB7B68EE
:101EB00018461837BD4680BD80B586B000AFF860C3
:101EC000B9607A6000237B6109E0BB685A1CBA6084
:101ED0001B781846AFF300807B6901337B617A6918
:101EE0007B689A42F1DB7B6818461837BD4680BD97
:101EF00080B483B000AF78604FF0FF3318460C37E2
:101F0000BD4680BC704780B483B000AF7860396054
:101F10003B684FF400525A60002318460C37BD4608
:101F200080BC704780B483B000AF7860012318464E
:101F30000C37BD4680BC704780B485B000AFF860F8
:101F4000B9607A60002318461437BD4680BC7047DC
:101F500080B586B000AF7860144A154BD31A7B6108
:101F60007B693B61134B1B68002B02D1114B124A5A
:101F70001A60104B1A687B6813443A699A4207D278
:101F80000BF038FA03460C221A604FF0FF3309E0D9
:101F9000084B1B68FB60074B1A687B681344054AB3
:101FA0001360FB6818461837BD4680BD000001204D
:101FB000000400000C120020B01A002080B400AF12
:101FC00000BFBD4680BC704780B483B000AF78606E
:101FD0007B689B6818460C37BD4680BC7047000084
:101FE00080B582B000AF0023FB71144B1B7883F0E7
:101FF0000103DBB2002B1BD0114B4FF0FF321A63F1
:10200000FFF776FC00F056F84FF480710C4803F0AF
:102010003BFA0B4B4FF0FF321A63094803F072FB97
:10202000002000F0D3F900F05FF8044B01221A7091
:10203000FB7918460837BD4680BD00BF101200204E
:10204000C411002080B58EB000AF7860002387F8FF
:10205000373007F108032C22002118460BF01CFA38
:1020600000F028F8114B1B687A6813447B6000234A
:102070007B627B68DB43FB600023FB614FF0005316
:102080003B624FF480733B6307F10803012219465A
:10209000074803F0EDF80346002B01D0FFF7FAFBE9
:1020A00097F8373018463837BD4680BD14120020E7
:1020B000C411002080B582B000AF0023FB71084B33
:1020C0000122DA654FF48071064803F0DDF9054B13
:1020D0004FF0FF321A63FB7918460837BD4680BDC2
:1020E00000280040C411002080B500AF00F08EF938
:1020F0000346034A1360024B1B68184680BD00BFAD
:102100001412002080B400AF024B1B681846BD4675
:1021100080BC70471412002080B582B000AF00234D
:102120007B6000F073F90246044B1B68D31A7B6096
:102130007B6818460837BD4680BD00BF14120020DA
:1021400080B582B000AF00237B60064B1B78002B6C
:1021500002D000F05BF978607B6818460837BD460E
:1021600080BD00BF1012002080B483B000AF0023F8
:102170007B6003237B607B6818460C37BD4680BCC0
:102180007047B0B584B000AF78600021F96079681D
:1021900000200A460346950D94024FF47A724FF0E0
:1021A000000320462946FEF747FD02460B4613462C
:1021B000FB60FB6818461037BD46B0BD2DE9B00F77
:1021C00085B000AF78600021F960796800200C4686
:1021D0000546204629464FF0000A4FF0000B4FEA13
:1021E000411B4BEAD06B4FEA401A50465946021B3E
:1021F00061EB05034FF000004FF00001990041EA48
:102200009271900002460B4612EB040843EB05095D
:102210004FF000024FF000034FEAC90343EA58733E
:102220004FEAC80290469946404649464FF00002A0
:102230004FF00003820A42EA81528B0A1346FB6088
:10224000FB6818461437BD46BDE8B00F704780B52F
:1022500084B000AF78607868FFF793FFF86000F013
:10226000D5F8B86000E000BF00F0D0F80246BB68C7
:10227000D31AFA689A42F6D800BF00BF1037BD469D
:1022800080BD80B582B000AF78600AF0DDFC00BF91
:102290000837BD4680BD80B584B000AF786000F0DF
:1022A000A5F8F860FB680133184600F08FF800BF0E
:1022B0001037BD4680BD2DE9B04F8CB000AF7861BE
:1022C0000023FB6200F0A2F8B86200F08FF8786299
:1022D0007B6A0022BB60FA604FF000024FF00003FF
:1022E000B9680B000022B96A00200C46054612EBC3
:1022F000040843EB0509C7E90689D7E906014FF051
:1023000000024FF00003820A42EA81528B0A134610
:10231000FB62BB6900223B607A603B68C3F3090A39
:102320004FF0000BC7E906ABBB691846FFF746FF45
:1023300003469AB27B691A80FB6A18463037BD465D
:10234000BDE8B08F80B582B000AF78607A680021B8
:10235000034803F069FA00BF0837BD4680BD00BFDF
:10236000C411002080B582B000AF78607A68012186
:10237000034803F059FA00BF0837BD4680BD00BFCF
:10238000C411002080B582B000AF00237B60002123
:10239000044803F061FA78607B6818460837BD4648
:1023A00080BD00BFC411002080B582B000AF002303
:1023B0007B600121044803F04FFA78607B6818467F
:1023C0000837BD4680BD00BFC411002080B582B073
:1023D00000AF78607A680221034803F025FA00BF55
:1023E0000837BD4680BD00BFC411002080B582B053
:1023F00000AF0221044803F02FFA78607B6818468A
:102400000837BD4680BD00BFC411002080B582B032
:1024100000AF0B48FFF7D8FD786003E00848FFF7EE
:10242000D3FD78600648FFF7CFFD02467B689342F4
:10243000F4D17B68DB4318460837BD4680BD00BF3A
:102440000028004080B485B000AF78604FF0B04302
:10245000DA6C4FF0B0417B681343CB644FF0B0436C
:10246000DA6C7B681340FB60FB6800BF1437BD4625
:1024700080BC704780B485B000AF78604FF0B04347
:102480001A6E4FF0B0417B6813430B664FF0B043B8
:102490001A6E7B681340FB60FB6800BF1437BD46B3
:1024A00080BC704780B483B000AF78604FF0B04319
:1024B0001A6E7B68DB434FF0B04113400B6600BFE0
:1024C0000C37BD4680BC704780B500AF224B234A15
:1024D0001A60214B4FF4E1325A601F4B00229A6080
:1024E0001D4B0022DA601C4B00221A611A4B0C2291
:1024F0005A61194B00229A61174B0022DA61164B80
:1025000000221A62144B00225A62134B00229A6274
:10251000114803F08CFE0346002B01D0FFF7BAF9F7
:1025200000210D4805F003FF0346002B01D0FFF703
:10253000B1F90021084805F038FF0346002B01D00F
:10254000FFF7A8F9044805F0B7FE0346002B01D0B9
:10255000FFF7A0F900BF80BD18120020003801402D
:1025600080B596B000AF786007F1440300221A608E
:102570005A609A60DA601A6107F10C033822002170
:1025800018460AF089FF7B681B682F4A934256D190
:102590000123FB604FF440333B6107F10C03184605
:1025A00002F0D2FC0346002B01D0FFF773F94FF481
:1025B0008040FFF75FFF0220FFF744FFC0237B64EA
:1025C0000223BB640023FB6403233B6507237B6575
:1025D00007F1440319461D4800F0AEFF1C4B1D4A8D
:1025E0001A601B4B12225A60194B10229A60184B2A
:1025F0000022DA60164B80221A61154B00225A61C4
:10260000134B00229A61124B0022DA61104B002218
:102610001A620F4800F0A6FB0346002B01D0FFF71B
:1026200039F97B680A4A9A67094A7B6893620022F3
:102630000221242000F05FFB242000F076FB00BF85
:102640005837BD4680BD00BF003801400004004837
:10265000A81200200800024080B582B000AF786068
:102660007B681B680B4A93420FD14FF48040FFF701
:1026700019FFC021084801F0BFF87B689B6F18461E
:1026800000F018FC242000F05EFB00BF0837BD46B8
:1026900080BD00BF003801400004004880B483B012
:1026A00000AF78604FF0B0431A6C4FF0B0417B68D8
:1026B00013430B6400BF0C37BD4680BC704780B429
:1026C00083B000AF78604FF0B0431A6C7B68DB4397
:1026D0004FF0B04113400B6400BF0C37BD4680BCC7
:1026E0007047000080B483B000AF7860064BD3F829
:1026F000802005497B681343C1F8803000BF0C3748
:10270000BD4680BC704700BF0008005880B582B04D
:1027100000AF7860074A7B681360FEF75FFCFFF745
:10272000D3FE4FF08060FFF7DDFF00231846083727
:10273000BD4680BD0C13002080B500AF4FF4804033
:10274000FFF7ACFF4FF48040FFF7B9FF0448FFF7F5
:1027500083FF0F2000F0F7FA0023184680BD00BF6A
:102760001812002080B582B000AF78600B467B80E5
:102770007B881A467968044803F000FE0023184657
:102780000837BD4680BD00BF1812002080B584B058
:1027900000AF7860194A7B6813604FF40013BB6088
:1027A00007F1080393E80600154805F0F8FC00BFA0
:1027B000134B1B68DB6903F48033B3F5803FF7D01C
:1027C00000BF0F4B1B68DB6903F48003B3F5800F78
:1027D000F7D10B4B1B689A68094B1B6842F48002C7
:1027E0009A60074805F036FD01220649044803F0C7
:1027F0006FFD002318461037BD4680BD1013002022
:10280000181200200813002080B500AF084803F01C
:102810000EFD0346002B01D0FFF73CF8054800F001
:10282000A1FA0346002B01D0FFF734F800BF80BDAA
:1028300018120020A812002080B582B000AF786086
:102840007B681B68054A934203D1054B1B68002037
:10285000984700BF0837BD4680BD00BF0038014023
:102860000C13002080B582B000AF78607B681B68D5
:102870000D4A934213D10D4B1B68002B0AD07B6885
:10288000D3F88C30002B05D1084B1B6800220121A6
:102890000748984701220649786803F019FD00BFF0
:1028A0000837BD4680BD00BF00380140101300202E
:1028B000081300200D488546FFF780FB0C480D49A2
:1028C0000D4A002302E0D458C4500433C4188C428B
:1028D000F9D30A4A0A4C002301E013600432A242F1
:1028E000FBD30AF08DFDFEF783FCFEE7000001201C
:1028F00000000020941100201C29010894110020E0
:10290000AC1A0020FEE780B586B000AF3B1D002268
:102910001A605A609A60DA601A6110237B600123A2
:10292000BB600023FB6003233B613B1D19464FF056
:10293000904000F001FE20237B603B1D19464FF0C4
:10294000904000F0F9FD002220214FF0904001F06E
:1029500038F8002210214FF0904001F032F80023A7
:1029600018461837BD4680BD80B582B000AF03461B
:10297000FB71FB79032B3FD801A252F823F000BF73
:1029800091290008AB290008C5290008DF290008A3
:10299000002210214FF0904001F013F80022202176
:1029A0004FF0904001F00DF827E0012210214FF088
:1029B000904001F006F8002220214FF0904001F0F5
:1029C00000F81AE0012210214FF0904000F0F9FFCA
:1029D000012220214FF0904000F0F3FF0DE0002293
:1029E00010214FF0904000F0ECFF012220214FF029
:1029F000904000F0E6FF00E000BF002318460837D3
:102A0000BD4680BD80B400AF02231846BD4680BCE1
:102A1000704780B400AF01231846BD4680BC7047A4
:102A200080B400AF01231846BD4680BC704780B417
:102A300085B000AF0346FB71FB79002B02D10F2359
:102A4000FB6001E01623FB60FB6818461437BD46A7
:102A500080BC704780B400AF044B5B68034A43F00E
:102A60000103536000BFBD4680BC7047002004E0F6
:102A700080B400AF044B5B68034A43F00203536029
:102A800000BFBD4680BC7047002004E080B400AFAA
:102A9000044B5B68034A43F00403536000BFBD4628
:102AA00080BC7047002004E080B582B000AF0023F6
:102AB000FB71032000F014F902F068F80346094A9C
:102AC00013600F20FFF704F90346002B02D0012307
:102AD000FB7101E0FEF7D5FFFB7918460837BD46CC
:102AE00080BD00BFA40F002080B400AF044B1B6862
:102AF000034A23F00203136000BFBD4680BC704749
:102B000010E000E080B400AF044B1B68034A43F0C0
:102B10000203136000BFBD4680BC704710E000E0B8
:102B200080B500AFFFF796FF00BF80BD80B500AF56
:102B3000FFF79EFF00BF80BD80B500AFFFF7A6FF87
:102B400000BF80BD80B485B000AF78607B6803F0C3
:102B50000703FB600C4BDB68BB60BA684FF6FF03F2
:102B60001340BB60FB681A02BB68134343F0BF63AA
:102B700043F40033BB60044ABB68D36000BF143722
:102B8000BD4680BC704700BF00ED00E080B400AFE0
:102B9000044BDB681B0A03F007031846BD4680BCE4
:102BA000704700BF00ED00E080B483B000AF034683
:102BB000FB7197F90730002B0BDBFB7903F01F0249
:102BC000064997F907305B09012000FA02F241F843
:102BD000232000BF0C37BD4680BC704700E100E0F9
:102BE00080B483B000AF0346FB7197F90730002B28
:102BF00012DBFB7903F01F020A4997F907305B09E2
:102C0000012000FA02F2203341F82320BFF34F8F56
:102C100000BFBFF36F8F00BF00BF0C37BD4680BC45
:102C2000704700BF00E100E080B483B000AF03460E
:102C30003960FB7197F90730002B0ADB3B68DAB289
:102C40000C4997F907301201D2B20B4483F80023E4
:102C50000AE03B68DAB20849FB7903F00F03043B52
:102C60001201D2B20B441A7600BF0C37BD4680BCAD
:102C7000704700BF00E100E000ED00E080B489B0E3
:102C800000AFF860B9607A60FB6803F00703FB618E
:102C9000FB69C3F10703042B28BF0423BB61FB6955
:102CA0000433062B02D9FB69033B00E000237B6160
:102CB0004FF0FF32BB6902FA03F3DA43BB681A40F4
:102CC0007B699A404FF0FF317B6901FA03F3D943E6
:102CD0007B680B40134318462437BD4680BC7047C1
:102CE00080B582B000AF78607868FFF72BFF00BF37
:102CF0000837BD4680BD80B586B000AF0346B960D9
:102D00007A60FB73FFF742FF78617A68B968786987
:102D1000FFF7B4FF024697F90F3011461846FFF748
:102D200083FF00BF1837BD4680BD80B582B000AFBD
:102D30000346FB7197F907301846FFF735FF00BFD0
:102D40000837BD4680BD80B582B000AF0346FB7139
:102D500097F907301846FFF743FF00BF0837BD4615
:102D600080BD000080B582B000AF78607B68002B2A
:102D700001D101238EE07B681B681A46474B9A42BB
:102D80000FD87B681B681A46454B1344454AA2FB83
:102D900003231B099A007B685A647B68424A1A64C1
:102DA0000EE07B681B681A46404B13443D4AA2FB69
:102DB00003231B099A007B685A647B683C4A1A64A7
:102DC0007B68022283F825207B681B681B687A6871
:102DD000126823F4FF4323F0700313607B681B68C1
:102DE00019687B689A687B68DB681A437B681B6993
:102DF0001A437B685B691A437B689B691A437B684B
:102E0000DB691A437B681B6A1A437B681B680A43A9
:102E10001A60786800F024FB7B689B68B3F5804FEC
:102E200002D17B6800225A607B685A687B689B6C81
:102E300002F07F021A607B68DB6C7A68126D5A6060
:102E40007B685B68002B10D07B685B68042B0CD818
:102E5000786800F04DFB7B685B6D00221A607B6830
:102E60009B6D7A68D26D5A6008E07B6800225A65D3
:102E70007B6800229A657B680022DA657B68002205
:102E8000DA637B68012283F825207B68002283F8BF
:102E90002420002318460837BD4680BD07040240A1
:102EA000F8FFFDBFCDCCCCCC00000240F8FBFDBF4D
:102EB0000004024080B582B000AF78607B68002BD0
:102EC00001D101237BE07B681B681A687B681B6863
:102ED00022F001021A607B681B681A463A4B9A423C
:102EE0000FD87B681B681A46384B1344384AA2FB3C
:102EF00003231B099A007B685A647B68354A1A646D
:102F00000EE07B681B681A46334B1344304AA2FB21
:102F100003231B099A007B685A647B682F4A1A6452
:102F20007B681B6800221A607B685B6C03F01C02E4
:102F30007B681B6C012101FA02F25A60786800F08C
:102F40008FFA7B689B6C00221A607B68DB6C7A6866
:102F5000126D5A607B685B68002B0FD07B685B68E2
:102F6000042B0BD8786800F0C3FA7B685B6D0022F5
:102F70001A607B689B6D7A68D26D5A607B6800220C
:102F80005A657B6800229A657B680022DA657B6857
:102F90000022DA627B6800221A637B6800225A638F
:102FA0007B6800229A637B680022DA637B680022D8
:102FB00083F825207B68002283F82420002318460C
:102FC0000837BD4680BD00BF07040240F8FFFDBFC3
:102FD000CDCCCCCC00000240F8FBFDBF0004024089
:102FE00080B586B000AFF860B9607A603B600023BE
:102FF000FB75FB6893F82430012B01D1022369E0B3
:10300000FB68012283F82420FB6893F82530DBB2AB
:10301000012B55D1FB68022283F82520FB68002292
:10302000DA63FB681B681A68FB681B6822F0010200
:103030001A603B687A68B968F86800F0D3F9FB68F1
:103040001B6B002B08D0FB681B681A68FB681B68A9
:1030500042F00E021A600FE0FB681B681A68FB68FA
:103060001B6822F004021A60FB681B681A68FB6880
:103070001B6842F00A021A60FB689B6C1B6803F431
:103080008033002B07D0FB689B6C1A68FB689B6C35
:1030900042F480721A60FB685B6D002B07D0FB68FE
:1030A0005B6D1A68FB685B6D42F480721A60FB68A6
:1030B0001B681A68FB681B6842F001021A6008E08E
:1030C000FB688022DA63FB68002283F82420012356
:1030D000FB75FB7D18461837BD4680BD80B483B0B4
:1030E00000AF78607B68002B01D101234FE07B6843
:1030F00093F82530DBB2022B08D07B680422DA6318
:103100007B68002283F82420012340E07B681B6851
:103110001A687B681B6822F00E021A607B689B6C41
:103120001A687B689B6C22F480721A607B681B684B
:103130001A687B681B6822F001021A607B685B6C6E
:1031400003F01C027B681B6C012101FA02F25A6039
:103150007B68DB6C7A68126D5A607B685B6D002B54
:103160000CD07B685B6D1A687B685B6D22F48072A3
:103170001A607B689B6D7A68D26D5A607B68012209
:1031800083F825207B68002283F82420002318463A
:103190000C37BD4680BC704780B584B000AF786006
:1031A0000023FB737B6893F82530DBB2022B05D03C
:1031B0007B680422DA630123FB7347E07B681B68AA
:1031C0001A687B681B6822F00E021A607B681B6815
:1031D0001A687B681B6822F001021A607B689B6C8E
:1031E0001A687B689B6C22F480721A607B685B6C47
:1031F00003F01C027B681B6C012101FA02F25A6089
:103200007B68DB6C7A68126D5A607B685B6D002BA3
:103210000CD07B685B6D1A687B685B6D22F48072F2
:103220001A607B689B6D7A68D26D5A607B68012258
:1032300083F825207B68002283F824207B689B6B21
:10324000002B03D07B689B6B78689847FB7B184604
:103250001037BD4680BD000080B584B000AF7860F7
:103260007B681B6C1B68FB607B681B681B68BB6012
:103270007B685B6C03F01C0304229A40FB681340DC
:10328000002B27D0BB6803F00403002B22D07B68FF
:103290001B681B6803F02003002B07D17B681B68A9
:1032A0001A687B681B6822F004021A607B685B6CFA
:1032B00003F01C027B681B6C042101FA02F25A60C5
:1032C0007B681B6B002B00F081807B681B6B786830
:1032D00098477BE07B685B6C03F01C0302229A40FA
:1032E000FB681340002B3DD0BB6803F00203002BAA
:1032F00038D07B681B681B6803F02003002B0BD1C0
:103300007B681B681A687B681B6822F00A021A60D7
:103310007B68012283F825207B681B681A462E4BA8
:103320009A4209D97B685B6C03F01C032B4A02218B
:1033300001FA03F3536008E07B685B6C03F01C0345
:10334000274A022101FA03F353607B68002283F8C5
:1033500024207B68DB6A002B38D07B68DB6A7868C6
:10336000984733E07B685B6C03F01C0308229A40AB
:10337000FB681340002B2AD0BB6803F00803002B26
:1033800025D07B681B681A687B681B6822F00E02D8
:103390001A607B685B6C03F01C027B681B6C01216C
:1033A00001FA02F25A607B680122DA637B6801222B
:1033B00083F825207B68002283F824207B685B6BE0
:1033C000002B04D07B685B6B7868984700BF00BF18
:1033D0001037BD4680BD00BF80000240000402409F
:1033E0000000024080B485B000AFF860B9607A6038
:1033F0003B60FB68DB6CFA68126D5A60FB685B6DC2
:10340000002B04D0FB689B6DFA68D26D5A60FB6894
:103410005B6C03F01C02FB681B6C012101FA02F2D9
:103420005A60FB681B683A685A60FB689B68102BFF
:1034300008D1FB681B687A689A60FB681B68BA68E9
:10344000DA6007E0FB681B68BA689A60FB681B6873
:103450007A68DA6000BF1437BD4680BC7047000050
:1034600080B485B000AF78607B681B681A461C4B3F
:103470009A4213D87B685B6C9B089B0003F18043E6
:1034800003F502337A6893647B681B68DBB2083B00
:10349000144AA2FB03231B09FB6011E07B685B6CF1
:1034A0009B089A00104B13447A6893647B681B68EE
:1034B000DBB2083B0B4AA2FB03231B090733FB606B
:1034C0007B680A4ADA64FB6803F01F0301229A4012
:1034D0007B681A6500BF1437BD4680BC704700BFCB
:1034E00007040240CDCCCCCC1C080240800802402E
:1034F00080B485B000AF78607B685B6803F07F03C1
:10350000FB60FA680A4B13449B001A467B685A65B5
:103510007B68084A9A65FB68013B03F003030122BC
:103520009A407B68DA6500BF1437BD4680BC70479F
:103530003F8200104009024080B487B000AF78603D
:10354000396000237B6140E13B681A6801217B6997
:1035500001FA03F31340FB60FB68002B00F032819B
:103560003B685B6803F00303012B05D03B685B6895
:1035700003F00303022B30D17B689B683B617B69BE
:103580005B00032202FA03F3DB433A6913403B6119
:103590003B68DA687B695B0002FA03F33A6913431C
:1035A0003B617B683A699A607B685B683B6101229A
:1035B0007B6902FA03F3DB433A6913403B613B68E2
:1035C0005B681B0903F001027B6902FA03F33A69A5
:1035D00013433B617B683A695A603B685B6803F060
:1035E0000303032B17D07B68DB683B617B695B00BF
:1035F000032202FA03F3DB433A6913403B613B6861
:103600009A687B695B0002FA03F33A6913433B61F2
:103610007B683A69DA603B685B6803F00303022B5E
:1036200023D17B69DA087B68083253F822303B618A
:103630007B6903F007039B000F2202FA03F3DB43CD
:103640003A6913403B613B681A697B6903F00703E1
:103650009B0002FA03F33A6913433B617B69DA0882
:103660007B680832396943F822107B681B683B612C
:103670007B695B00032202FA03F3DB433A691340E0
:103680003B613B685B6803F003027B695B0002FA05
:1036900003F33A6913433B617B683A691A603B68FC
:1036A0005B6803F44033002B00F08C804E4A7B694A
:1036B0009B08023352F823303B617B6903F003031C
:1036C0009B00072202FA03F3DB433A6913403B6194
:1036D0007B68B3F1904F0DD07B68444A934207D08A
:1036E0007B68434A934201D1022304E0072302E0AE
:1036F000012300E000237A6902F003029200934064
:103700003A6913433B6138497B699B0802333A6944
:1037100041F82320374B1B683B61FB68DB433A6968
:1037200013403B613B685B6803F48013002B03D0BC
:103730003A69FB6813433B612E4A3B6913602D4B8A
:103740005B683B61FB68DB433A6913403B613B6864
:103750005B6803F40013002B03D03A69FB68134342
:103760003B61244A3B695360224BD3F880303B6174
:10377000FB68DB433A6913403B613B685B6803F4D9
:103780008033002B03D03A69FB6813433B61194A2D
:103790003B69C2F88030174BD3F884303B61FB683B
:1037A000DB433A6913403B613B685B6803F40033D9
:1037B000002B03D03A69FB6813433B610D4A3B6918
:1037C000C2F884307B6901337B613B681A687B698E
:1037D00022FA03F3002B7FF4B7AE00BF00BF1C3703
:1037E000BD4680BC704700BF000001400004004897
:1037F000000800480008005880B487B000AF786027
:10380000396000237B61AFE001227B6902FA03F398
:103810003A6813403B613B69002B00F0A280594A93
:103820007B699B08023352F82330FB607B6903F00D
:1038300003039B00072202FA03F3FA681340FB60BC
:103840007B68B3F1904F0DD07B684F4A934207D00D
:103850007B684E4A934201D1022304E0072302E031
:10386000012300E000237A6902F0030292009340F2
:10387000FA689A4236D1464BD3F880203B69DB4345
:1038800043491340C1F88030414BD3F884203B6951
:10389000DB433F491340C1F884303D4B1A683B6914
:1038A000DB433B4913400B60394B5A683B69DB43B0
:1038B000374913404B607B6903F003039B000722E9
:1038C00002FA03F3FB602F4A7B699B08023352F82C
:1038D0002310FB68DA432B487B699B080A400233BC
:1038E00040F823207B681A687B695B00032101FA9A
:1038F00003F31A437B681A607B69DA087B68083235
:1039000053F822107B6903F007039B000F2202FA91
:1039100003F3DB437A69D20819407B68083243F825
:1039200022107B689A687B695B00032101FA03F32C
:10393000DB431A407B689A607B685A6801217B6987
:1039400001FA03F3DB431A407B685A607B68DA684C
:103950007B695B00032101FA03F3DB431A407B68B8
:10396000DA607B6901337B613A687B6922FA03F391
:10397000002B7FF449AF00BF00BF1C37BD4680BCA1
:10398000704700BF000001400004004800080048E4
:103990000008005880B485B000AF78600B467B808B
:1039A0007B681A697B881340002B02D00123FB73CC
:1039B00001E00023FB73FB7B18461437BD4680BC37
:1039C000704780B483B000AF78600B467B801346AD
:1039D0007B707B78002B03D07A887B689A6102E049
:1039E0007A887B689A6200BF0C37BD4680BC7047FE
:1039F00080B582B000AF0346FB80084BDA68FB88D5
:103A00001340002B06D0054AFB88D360FB8818467C
:103A100000F006F800BF0837BD4680BD000800581A
:103A200080B483B000AF0346FB8000BF0C37BD46B7
:103A300080BC704780B400AF044B1B68034A43F45A
:103A40008073136000BFBD4680BC704700040058FF
:103A500080B582B000AF78600B46FB707B68002BAE
:103A60000CD1134B5B6903F40073B3F5007F0DD1E8
:103A700000F03CF80346002B08D015E00C4B5B69C6
:103A800003F40073002B01D100F022F8094B1B69ED
:103A9000084A23F004031361FB78012B01D130BFE6
:103AA00002E040BF20BF20BF0837BD4680BD00BF39
:103AB0000004005800ED00E080B400AF034B1B6829
:103AC00003F4C0631846BD4680BC7047000400582C
:103AD00080B400AF044B1B68034A43F48043136077
:103AE00000BFBD4680BC70470004005880B483B05E
:103AF00000AF164B1B68154A23F480431360144B28
:103B00001B68322202FB03F3124AA2FB03239B0C25
:103B10007B6002E07B68013B7B600C4B5B6903F4DC
:103B20000073B3F5007F02D17B68002BF2D1074B05
:103B30005B6903F40073B3F5007F01D1032300E058
:103B4000002318460C37BD4680BC7047000400585F
:103B5000A40F002083DE1B4380B483B000AF034674
:103B6000FB71104B1B6823F007030E4A43F002035E
:103B700013600D4B1B690C4A43F004031361FB797E
:103B8000012B01D130BF02E040BF20BF20BF064B58
:103B90001B69054A23F00403136100BF0C37BD46BF
:103BA00080BC70470004005800ED00E080B400AF16
:103BB000064B1B6803F48073B3F5807F01D10123AA
:103BC00000E000231846BD4680BC70470004005842
:103BD00080B400AF4FF0B0431B684FF0B04243F4E5
:103BE0000013136000BFBD4680BC704780B400AFB7
:103BF0004FF0B0431B684FF0B04223F40013136042
:103C000000BFBD4680BC704780B400AF4FF0B043EA
:103C10001B6803F48013B3F5801F01D1012300E07A
:103C200000231846BD4680BC704780B400AF4FF0FB
:103C3000B0431B684FF0B04243F48033136000BFC1
:103C4000BD4680BC704780B400AF4FF0B0431B68E6
:103C50004FF0B04223F48033136000BFBD4680BCF8
:103C6000704780B400AF4FF0B0431B6803F40033DB
:103C7000B3F5003F01D1012300E000231846BD4603
:103C800080BC704780B400AF4FF0B0431B684FF06A
:103C9000B04243F48073136000BFBD4680BC7047E0
:103CA00080B400AF4FF0B0431B684FF0B04223F434
:103CB0008073136000BFBD4680BC704780B400AF06
:103CC0004FF0B0431B6803F48063B3F5806F01D1FC
:103CD000012300E000231846BD4680BC704780B435
:103CE00083B000AF78604FF0B0435B6823F0FE42D2
:103CF0007B681B064FF0B04113434B6000BF0C378D
:103D0000BD4680BC704780B400AF4FF0B043D3F8DD
:103D1000903003F00203022B01D1012300E00023C5
:103D20001846BD4680BC704780B400AF4FF0B0432A
:103D3000D3F894304FF0B04243F00103C2F894300E
:103D400000BFBD4680BC704780B400AF4FF0B043A9
:103D5000D3F894304FF0B04223F00103C2F894300E
:103D600000BFBD4680BC704780B400AF4FF0B04389
:103D7000D3F8943003F00203022B01D1012300E0B9
:103D800000231846BD4680BC704780B400AF4FF09A
:103D9000B0431B684FF0B04243F00103136000BF13
:103DA000BD4680BC704780B400AF4FF0B0431B6885
:103DB0004FF0B04223F00103136000BFBD4680BC4A
:103DC000704780B400AF4FF0B0431B6803F00203AC
:103DD000022B01D1012300E000231846BD4680BC20
:103DE000704780B400AF4FF0B0431B6803F0080386
:103DF000082B01D1012300E000231846BD4680BCFA
:103E0000704780B400AF4FF0B0431B6803F0F0037D
:103E10001846BD4680BC704780B400AF4FF0B04339
:103E2000D3F8943003F470631846BD4680BC7047E5
:103E300080B483B000AF78604FF0B0435B6823F488
:103E40007F427B681B024FF0B04113434B6000BFC1
:103E50000C37BD4680BC704780B483B000AF78603B
:103E60004FF0B0439B6823F003024FF0B0417B68F2
:103E700013438B6000BF0C37BD4680BC704780B4D5
:103E800000AF4FF0B0439B6803F00C031846BD46EB
:103E900080BC704780B483B000AF78604FF0B0430F
:103EA0009B6823F0F0024FF0B0417B6813438B60B6
:103EB00000BF0C37BD4680BC704780B483B000AFF4
:103EC00078604FF0B043D3F8083123F00F027B68DD
:103ED0001B094FF0B0411343C1F8083100BF0C3744
:103EE000BD4680BC704780B483B000AF78604FF0AF
:103EF000B0439B6823F4E0624FF0B0417B6813430A
:103F00008B6000BF0C37BD4680BC704780B483B067
:103F100000AF78604FF0B0439B6823F460524FF0DD
:103F2000B0417B6813438B6000BF0C37BD4680BC3B
:103F3000704780B400AF4FF0B0439B6803F0F003CC
:103F40001846BD4680BC704780B400AF4FF0B04308
:103F5000D3F808311B0103F0F0031846BD4680BCBE
:103F6000704780B400AF4FF0B0439B6803F4E06348
:103F70001846BD4680BC704780B400AF4FF0B043D8
:103F80009B6803F460531846BD4680BC704780B4FC
:103F900000AF4FF0B0431B684FF0B04243F0807366
:103FA000136000BFBD4680BC704780B400AF4FF0C7
:103FB000B0431B684FF0B04223F08073136000BF22
:103FC000BD4680BC704780B400AF4FF0B0431B6863
:103FD00003F00073B3F1007F01D1012300E000235F
:103FE0001846BD4680BC704780B400AF4FF0B04368
:103FF000DB681B0A03F07F031846BD4680BC704790
:1040000080B400AF4FF0B043DB6803F06043184664
:10401000BD4680BC704780B400AF4FF0B043DB6852
:1040200003F070031846BD4680BC704780B400AFF3
:104030004FF0B043DB6803F003031846BD4680BC75
:10404000704780B400AF4FF0B0439B6803F48033F7
:10405000B3F5803F01D1012300E000231846BD469F
:1040600080BC704780B400AF4FF0B043D3F8083144
:1040700003F48033B3F5803F01D1012300E0002336
:104080001846BD4680BC704780B400AF4FF0B043C7
:104090009B6803F40033B3F5003F01D1012300E036
:1040A00000231846BD4680BC704780B400AF4FF077
:1040B000B0439B6803F48023B3F5802F01D1012323
:1040C00000E000231846BD4680BC704780B588B02C
:1040D00000AF78607B68002B01D101238BE3FFF7F1
:1040E000CEFEF861FFF7A2FFB8617B681B6803F0A2
:1040F0002003002B00F0C980FB69002B05D0FB6971
:104100000C2B7BD1BB69012B78D1FFF75AFE0346FC
:10411000002B05D07B681B6A002B01D101236AE3C9
:104120007B689A6A4FF0B0431B6803F00803002BCA
:1041300005D04FF0B0431B6803F0F00306E04FF0EA
:10414000B043D3F894301B0903F0F003934222D21A
:104150007B689B6A184600F051FD0346002B01D096
:10416000012348E34FF0B0431B684FF0B04243F0E7
:10417000080313604FF0B0431B6823F0F0027B6824
:104180009B6A4FF0B04113430B607B685B6A184633
:10419000FFF74EFE21E04FF0B0431B684FF0B042F6
:1041A00043F0080313604FF0B0431B6823F0F002A4
:1041B0007B689B6A4FF0B04113430B607B685B6A7E
:1041C0001846FFF735FE7B689B6A184600F016FD1F
:1041D0000346002B01D001230DE300F0D7FC03467A
:1041E000A14A1360A14B1B681846FDF771FD0346F9
:1041F000FB74FB7C002B47D0FB7CFCE27B681B6ADA
:10420000002B2CD0FFF7C1FDFDF76CFD786108E0B5
:10421000FDF768FD02467B69D31A022B01D90323FF
:10422000E9E2FFF7CEFD0346002BF1D04FF0B0439B
:104230001B684FF0B04243F0080313604FF0B043E7
:104240001B6823F0F0027B689B6A4FF0B041134378
:104250000B607B685B6A1846FFF7EAFD15E0FFF725
:10426000A2FDFDF73FFD786108E0FDF73BFD02464A
:104270007B69D31A022B01D90323BCE2FFF7A1FD0E
:104280000346002BF1D100E000BF7B681B6803F000
:104290000103002B5FD0FB69082B05D0FB690C2BB9
:1042A0000DD1BB69032B0AD1FFF7DBFC0346002BC2
:1042B00050D07B685B68002B4CD101239BE24FF010
:1042C000B0431B6823F480127B689B684FF0B041B9
:1042D00013430B607B685B68B3F5803F02D1FFF747
:1042E000A4FC0DE07B685B68B3F5041F04D1FFF705
:1042F0006FFCFFF79AFC03E0FFF7A5FCFFF776FCE5
:104300007B685B68002B12D0FDF7ECFC786108E05D
:10431000FDF7E8FC02467B69D31A642B01D903231D
:1043200069E2FFF79EFC0346002BF1D013E0FDF796
:10433000D9FC786108E0FDF7D5FC02467B69D31A09
:10434000642B01D9032356E2FFF78BFC0346002BB5
:10435000F1D100E000BF7B681B6803F00203002B73
:104360004BD0FB69042B05D0FB690C2B13D1BB6927
:10437000022B10D1FFF7A2FC0346002B05D07B686F
:104380001B69002B01D1012335E27B685B6918466C
:10439000FFF7A5FC31E07B681B69002B19D0FFF704
:1043A00071FCFDF79FFC786108E0FDF79BFC02467D
:1043B0007B69D31A022B01D903231CE2FFF77EFC91
:1043C0000346002BF1D07B685B691846FFF787FC3A
:1043D00013E0FFF765FCFDF785FC786108E0FDF769
:1043E00081FC02467B69D31A022B01D9032302E226
:1043F000FFF764FC0346002BF1D17B681B6803F0D8
:104400000803002B6FD07B689B69002B57D04FF0BF
:10441000B043D3F89430FB607B68DA69FB6803F043
:1044200010039A4236D0FB6803F00203002B06D03B
:10443000FB6803F00103002B01D10123DBE1FB68E2
:1044400003F00103002B18D0FFF77EFCFDF74AFCB8
:1044500078610DE0FDF746FC02467B69D31A112B0B
:1044600006D90323C7E100BFA40F0020A80F002036
:10447000FFF77AFC0346002BECD14FF0B043D3F8A2
:10448000943023F010027B68DB694FF0B041134396
:10449000C1F89430FFF748FCFDF724FC786108E090
:1044A000FDF720FC02467B69D31A112B01D90323A7
:1044B000A1E1FFF759FC0346002BF1D013E0FFF711
:1044C00043FCFDF70FFC786108E0FDF70BFC0246AA
:1044D0007B69D31A112B01D903238CE1FFF744FC2C
:1044E0000346002BF1D17B681B6803F00403002B0B
:1044F00000F0D880FFF75AFB0346002B13D1FFF7DB
:1045000099FAFDF7EFFB786108E0FDF7EBFB024657
:104510007B69D31A022B01D903236CE1FFF746FB19
:104520000346002BF1D07B68DB68002B7BD07B68D7
:10453000DB68852B03D07B68DB68052B09D14FF046
:10454000B043D3F890304FF0B04243F00403C2F8C8
:104550009030FDF7C7FB78614FF0B043D3F890304F
:104560004FF0B04243F00103C2F890300AE0FDF78B
:10457000B9FB02467B69D31A41F28832934201D9D2
:10458000032338E1FFF7BFFB0346002BEFD07B6826
:10459000DB68812B03D07B68DB68852B21D1FDF79D
:1045A000A1FB78614FF0B043D3F890304FF0B042A8
:1045B00043F08003C2F890300AE0FDF793FB024617
:1045C0007B69D31A41F28832934201D9032312E165
:1045D0004FF0B043D3F8903003F40063002BECD0DD
:1045E00060E0FDF77FFB78614FF0B043D3F8903087
:1045F0004FF0B04223F08003C2F890300AE0FDF79C
:1046000071FB02467B69D31A41F28832934201D989
:104610000323F0E04FF0B043D3F8903003F400638D
:10462000002BECD13EE0FDF75DFB78614FF0B0432D
:10463000D3F890304FF0B04223F08003C2F89030AE
:104640000AE0FDF74FFB02467B69D31A41F288323C
:10465000934201D90323CEE04FF0B043D3F890301A
:1046600003F40063002BECD1FDF73CFB78614FF0C5
:10467000B043D3F890304FF0B04223F00103C2F8BA
:1046800090300AE0FDF72EFB02467B69D31A41F217
:104690008832934201D90323ADE0FFF734FB034690
:1046A000002BEFD17B68DB6A002B00F0A380FB6955
:1046B0000C2B76D07B68DB6A022B4BD1FFF775FCA5
:1046C000FDF710FB786108E0FDF70CFB02467B6903
:1046D000D31A0A2B01D903238DE0FFF774FC03469C
:1046E000002BF1D14FF0B043DA68454B13407A68A4
:1046F000116B7A68526B11437A68926B1202114304
:104700007A68D26B11437A68126C11437A68526CE2
:104710000A434FF0B0411343CB60FFF738FC4FF032
:10472000B043DB684FF0B04243F08053D360FDF7F5
:10473000D9FA786108E0FDF7D5FA02467B69D31A09
:104740000A2B01D9032356E0FFF73DFC0346002B5B
:10475000F1D04FE0FFF729FC4FF0B043DB684FF09A
:10476000B04223F00303D3604FF0B043DB684FF057
:10477000B04223F0885323F48033D360FDF7B2FABC
:10478000786108E0FDF7AEFA02467B69D31A0A2B7E
:1047900001D903232FE0FFF716FC0346002BF1D1CC
:1047A00028E07B68DB6A012B01D1012323E04FF075
:1047B000B043DB68BB61BB6903F003027B681B6B22
:1047C0009A4215D1BB6903F070027B685B6B9A4219
:1047D0000ED1BB6903F4FE427B689B6B1B029A42BD
:1047E00006D1BB6903F060427B685B6C9A4201D0E2
:1047F000012300E0002318462037BD4680BD00BFDE
:104800008C80C11180B584B000AF786039607B685E
:10481000002B01D101230FE1894B1B6803F0070333
:104820003A689A421BD9864B1B6823F007028449D9
:104830003B6813430B60FDF755FAF86008E0FDF79D
:1048400051FA0246FB68D31A022B01D90323F3E085
:104850007B4B1B6803F007033A689A42EFD17B68F1
:104860001B6803F00203002B16D07B689B68184678
:10487000FFF710FBFDF736FAF86008E0FDF732FAB3
:104880000246FB68D31A022B01D90323D4E0FFF7B9
:10489000D8FB0346002BF1D07B681B6803F0400374
:1048A000002B16D07B685B691846FFF706FBFDF707
:1048B00019FAF86008E0FDF715FA0246FB68D31A0A
:1048C000022B01D90323B7E0FFF7CCFB0346002BF3
:1048D000F1D07B681B6803F00403002B16D07B68C3
:1048E000DB681846FFF7FFFAFDF7FCF9F86008E00F
:1048F000FDF7F8F90246FB68D31A022B01D903230E
:104900009AE0FFF7C1FB0346002BF1D07B681B68E0
:1049100003F00803002B17D07B681B69DB001846E7
:10492000FFF7F4FAFDF7DEF9F86008E0FDF7DAF9D1
:104930000246FB68D31A022B01D903237CE0FFF760
:10494000B4FB0346002BF1D07B681B6803F0010326
:10495000002B43D07B685B68022B06D1FFF781F9FF
:104960000346002B1ED1012366E07B685B68032BA6
:1049700006D1FFF728FB0346002B13D101235BE090
:104980007B685B68002B06D1FFF71BFA0346002B00
:1049900008D1012350E0FFF791F90346002B01D124
:1049A000012349E07B685B681846FFF755FAFDF77D
:1049B00099F9F8600AE0FDF795F90246FB68D31A09
:1049C00041F28832934201D9032335E0FFF757FAC9
:1049D00002467B685B689B009A42ECD1184B1B68CF
:1049E00003F007033A689A421BD2154B1B6823F069
:1049F000070213493B6813430B60FDF773F9F86036
:104A000008E0FDF76FF90246FB68D31A022B01D9C3
:104A1000032311E00A4B1B6803F007033A689A422C
:104A2000EFD100F0B3F80346064A1360064B1B684B
:104A30001846FDF74DF9034618461037BD4680BDB0
:104A400000400058A40F0020A80F002090B587B0A8
:104A500000AF00237B6100233B61FFF710FAB860D1
:104A6000FFF7E4FA7860BB68002B05D0BB680C2B1D
:104A700039D17B68012B36D1FFF7B3F90346002B00
:104A800015D1FFF7AEF90346012B06D1FFF7B9F9AF
:104A900003461B0A03F00F0305E0FFF7BDF90346C9
:104AA0001B0A03F00F03364A52F8233014E0FFF7D5
:104AB00098F90346012B06D1FFF7A3F903461B091A
:104AC00003F00F0305E0FFF7A7F903461B0903F006
:104AD0000F032B4A52F823303B61BB68002B15D1E2
:104AE0003B697B6112E0BB68042B02D1254B7B61E3
:104AF0000CE0BB68082B09D1FFF786F80346012BB1
:104B000002D1204B7B6101E01F4B7B61FFF7B7F9BE
:104B100003460C2B2FD1FFF789FA78607B68022BB4
:104B200003D07B68032B03D00DE0164BFB600DE038
:104B3000FFF76AF80346012B02D1124BFB6005E038
:104B4000114BFB6002E03B69FB6000BFFFF74CFAD2
:104B50000246FB6803FB02F4FFF75DFA03461B09FC
:104B60000133B4FBF3F4FFF74BFA03465B0F013359
:104B7000B4FBF3F37B617B6918461C37BD4690BDDF
:104B8000402201080024F4000048E80198B500AF75
:104B9000FFF75CFF0446FFF7CCF903461B0903F05F
:104BA0000F03034A52F82330B4FBF3F3184698BDC1
:104BB000E021010898B500AFFFF7E8FF0446FFF7D2
:104BC000D0F903461B0A034A52F8233024FA03F3B0
:104BD000184698BD2022010898B500AFFFF7D6FF10
:104BE0000446FFF7C9F90346DB0A034A52F82330AB
:104BF00024FA03F3184698BD2022010890B585B029
:104C000000AF78607B681B0903F00F03104A52F86D
:104C10002330FB60FFF798F903461B0903F00F03ED
:104C20000C4A52F82330FA68B2FBF3F3BB60BB685E
:104C3000094AA2FB03239C0CFEF73EFF03461946DC
:104C4000204600F00BF8034618461437BD4690BDC9
:104C500040220108E021010883DE1B4380B58EB0AD
:104C600000AF786039603A4A07F1200392E8030008
:104C7000186004331980374A07F1180392E80300DB
:104C8000186004331980344A07F10C0307CA83E81B
:104C9000070000237B633B68B3F5007F1BD1002333
:104CA0003B6314E03B6B5B0038333B4433F8183C08
:104CB0001A467B68934207D83B6B9B0038333B44D2
:104CC00053F82C3C7B6321E03B6B01333B633B6B34
:104CD000022BE7D91AE00023FB6214E0FB6A5B00B9
:104CE00038333B4433F8203C1A467B68934207D85C
:104CF000FB6A9B0038333B4453F82C3C7B6305E054
:104D0000FB6A0133FB62FB6A022BE7D9134B1B687A
:104D100023F0070211497B6B13430B60FCF7E2FFA2
:104D2000B86208E0FCF7DEFF0246BB6AD31A022B2A
:104D300001D9032307E0094B1B6803F007037A6BD3
:104D40009A42EFD1002318463837BD4680BD00BFD8
:104D5000F01E0108F81E0108001F0108004000585D
:104D600080B400AF4FF0B043D3F8903003F00203AB
:104D7000022B01D1012300E000231846BD4680BC70
:104D8000704780B483B000AF78604FF0B043D3F881
:104D900088207B681B0CDB431A407B689BB24FF07A
:104DA000B0411343C1F8883000BF0C37BD4680BC0A
:104DB000704780B483B000AF78604FF0B043D3F851
:104DC000883023F440724FF0B0417B681343C1F840
:104DD000883000BF0C37BD4680BC704780B483B0BC
:104DE00000AF78604FF0B043D3F8883023F44062CE
:104DF0004FF0B0417B681343C1F8883000BF0C37D7
:104E0000BD4680BC704780B483B000AF78604FF07F
:104E1000B043D3F888207B681B0903F47F23DB436E
:104E20001A407B681B0103F47F234FF0B04113430A
:104E3000C1F8883000BF0C37BD4680BC704780B4D5
:104E400083B000AF78604FF0B043D3F888207B6820
:104E50001B0C1B04DB431A407B681B044FF0B04162
:104E60001343C1F8883000BF0C37BD4680BC704783
:104E700080B483B000AF78604FF0B043D3F888308F
:104E800023F040424FF0B0417B681343C1F88830B3
:104E900000BF0C37BD4680BC704780B483B000AF04
:104EA00078604FF0B043D3F8883023F040524FF091
:104EB000B0417B681343C1F8883000BF0C37BD4652
:104EC00080BC704780B483B000AF78604FF0B043CF
:104ED000D3F8903023F440724FF0B0417B68134315
:104EE000C1F8903000BF0C37BD4680BC704780B41D
:104EF00000AF4FF0B043D3F8903003F4407318463E
:104F0000BD4680BC704780B400AF4FF0B043D3F8CB
:104F100090304FF0B04243F48033C2F8903000BF7D
:104F2000BD4680BC704780B400AF4FF0B043D3F8AB
:104F300090304FF0B04223F48033C2F8903000BF7D
:104F4000BD4680BC7047000080B586B000AF786079
:104F500000237B610023FB740023BB747B681B6808
:104F600003F48033002B58D0FEF764FDFCF7BAFE43
:104F7000F86009E0FCF7B6FE0246FB68D31A022B84
:104F800002D90323FB7406E07B4B1B6803F4807398
:104F9000B3F5807FEED1FB7C002B3CD1FFF7A7FF60
:104FA00002467B685B6B9A420FD04FF0B043D3F858
:104FB000903023F440737B61FFF7A5FFFFF7B3FF49
:104FC0004FF0B0427B69C2F890307B6903F0020376
:104FD000002B14D0FCF786FEF8600BE0FCF782FE95
:104FE0000246FB68D31A41F28832934202D9032366
:104FF000FB7404E0FFF7B4FE0346012BEED1FB7C0B
:10500000002B05D17B685B6B1846FFF75BFF04E064
:10501000FB7CBB7401E0FB7CBB747B681B6803F00A
:105020000103002B04D07B685B681846FFF7A9FEDC
:105030007B681B6803F00203002B04D07B689B682D
:105040001846FFF79EFE7B681B6803F02003002BC9
:1050500004D07B681B691846FFF7C0FE7B681B689D
:1050600003F40073002B04D07B681B6A1846FFF71B
:10507000E6FE7B681B6803F48063002B04D07B682A
:105080005B6A1846FFF7DBFE7B681B6803F400636E
:10509000002B04D07B689B6A1846FFF7D0FE7B6824
:1050A0001B6803F04003002B04D07B685B69184643
:1050B000FFF7A9FE7B681B6803F08003002B04D078
:1050C0007B689B691846FFF79EFE7B681B6803F4AC
:1050D0008073002B04D07B68DB691846FFF793FED2
:1050E0007B681B6803F01003002B11D07B68DB6822
:1050F0001846FFF75EFE7B68DB68B3F5807F07D15B
:105100004FF0B043DB684FF0B04243F08073D360A0
:105110007B681B6803F40043002B10D07B681B6B7B
:105120001846FFF7A5FE7B681B6B002B07D14FF0DD
:10513000B043DB684FF0B04243F08073D3607B68CC
:105140001B6803F48043002B11D07B68DB6A184690
:10515000FFF7A3FE7B68DB6AB3F1005F07D14FF076
:10516000B043DB684FF0B04243F48033D360BB7C84
:1051700018461837BD4680BD0004005880B584B07D
:1051800000AF78600123FB737B68002B68D07B68DD
:1051900093F82D30DBB2002B06D17B68002283F818
:1051A0002C207868FCF7F6FB7B68022283F82D2020
:1051B0002E4BCA225A622D4B53225A62786800F055
:1051C0000FFA0346FB73FB7B002B3FD1274B9B69F8
:1051D000264A23F08E6323F040039361234B9A69A0
:1051E0007B6859687B681B6919437B689B690B4323
:1051F0001E4913438B617B68DA687B689B681B04DC
:105200001A4913430B61194BDB6823F4F8527B688E
:10521000596A7B689B6A0B4314491343CB607868D7
:1052200000F012FA0346FB73FB7B002B0ED10F4BF1
:105230009B6923F060427B68196A7B68DB691943CC
:105240007B685B690B43094913438B61074BFF2262
:105250005A62FB7B002B03D17B68012283F82D204F
:10526000FB7B18461037BD4680BD00BF00280040BC
:1052700090B587B000AFF860B9607A6000237B61B9
:10528000FB6893F82C30012B01D10223F3E0FB687B
:10529000012283F82C20FB68022283F82D20784B12
:1052A000DB6803F440733B613B69B3F5807F6AD0F0
:1052B0007B68002B3AD1724B9B6903F04003002BB3
:1052C00002D1BB680022DA70BB685B69B3F1004FA2
:1052D000BB681B78184600F0F5F903461C04BB6850
:1052E0005B78184600F0EEF903461B021C43BB68CE
:1052F0009B78184600F0E6F9034644EA0302BB68CF
:10530000DB789B0542EA0304BB6893F82430184617
:1053100000F0D8F903461B0644EA0302BB681B6A87
:105320001A43BB685B6913437B612CE0BB685B6914
:10533000B3F1803F0DD0BB685B69B3F5000F08D0B7
:105340004F4B9B6903F04003002B02D1BB68002246
:10535000DA70BB681B781A04BB685B781B021343C6
:10536000BA6892781A43BB68DB789B051A43BB681E
:1053700093F824301B061A43BB681B6A1A43BB68A8
:105380005B6913437B613E4BCA225A623C4B5322FA
:105390005A62BB689B6AB3F5807F2CD1384B9B69FE
:1053A000374A23F488539361354B0122DA653B6910
:1053B000B3F5807F07D1BB689A69BB68DB69304968
:1053C00013434B6406E02E4A7B6913642C4ABB6886
:1053D0009B6953642A4ABB685B681367FB681B6B55
:1053E00043F00102FB681A63254B9B69244A43F48E
:1053F000885393612BE0224B9B69214A23F4085385
:1054000093611F4B0222DA653B69B3F5807F07D1B8
:10541000BB689A69BB68DB6919491343CB6406E032
:10542000174A7B699364164ABB689B69D364144A24
:10543000BB685B685367FB681B6B43F00202FB6849
:105440001A630F4B9B690E4A43F4085393610D4B4B
:10545000D3F880300B4A43F40033C2F88030084B55
:10546000FF225A62FB68012283F82D20FB6800228C
:1054700083F82C20002318461C37BD4690BD00BF82
:10548000002800400008005880B483B000AF786066
:1054900039607B6893F82C30012B01D1022348E05E
:1054A0007B68012283F82C207B68022283F82D2060
:1054B000224BCA225A62214B53225A623B68B3F5EF
:1054C000807F15D11D4B9B691C4A23F4885393613F
:1054D0001A4B5B6C194A23F0004353647B681B6BC7
:1054E00023F001027B681A63144B0122DA6514E091
:1054F000124B9B69114A23F4085393610F4BDB6CE9
:105500000E4A23F00043D3647B681B6B23F0020236
:105510007B681A63094B0222DA65084BFF225A6244
:105520007B68012283F82D207B68002283F82C20E1
:10553000002318460C37BD4680BC70470028004049
:1055400080B584B000AF7860114B5A6D7B681B6BDF
:105550001340FB60FB6803F00103002B05D00C4BEC
:105560000122DA657868FCF78CFEFB6803F0020321
:10557000002B05D0064B0222DA65786800F04AF964
:105580007B68012283F82D2000BF1037BD4680BD07
:105590000028004080B584B000AF78600F4BDB6816
:1055A0000E4A23F02003D360FCF79CFBF86009E06F
:1055B000FCF798FB0246FB68D31AB3F57A7F01D952
:1055C000032306E0054BDB6803F02003002BEFD03C
:1055D000002318461037BD4680BD00BF002800409C
:1055E00080B584B000AF78600023FB73154BDB6897
:1055F00003F04003002B20D1124BDB68114A43F02B
:105600008003D360FCF76EFBB8600DE0FCF76AFB2B
:105610000246BB68D31AB3F57A7F05D90323FB731F
:105620007B68032283F82D20064BDB6803F04003E0
:10563000002B02D1FB7B032BE8D1FB7B18461037F4
:10564000BD4680BD0028004080B584B000AF7860C2
:105650000023FB731A4BDB68194A23F08003D360E5
:10566000174B9B6903F02003002B0CD17868FFF7E0
:1056700091FF0346002B1ED07B68032283F82D2068
:105680000323FB7317E00E4B9B690D4A23F02003A5
:1056900093617868FFF77EFF0346002B05D07B6897
:1056A000032283F82D200323FB73054B9B69044AD7
:1056B00043F020039361FB7B18461037BD4680BD45
:1056C0000028004080B485B000AF0346FB71002382
:1056D000FB60FB79FB7205E0FB680133FB60FB7A42
:1056E0000A3BFB72FB7A092BF6D8FB68DBB21B0185
:1056F000DAB2FB7A1343DBB218461437BD4680BCDE
:105700007047000080B483B000AF78607B6893F886
:105710002C30012B01D102231FE07B68012283F88A
:105720002C207B68022283F82D200E4BCA225A625D
:105730000C4B53225A620B4B9B690A4A43F02003DD
:105740009361084BFF225A627B68012283F82D2067
:105750007B68002283F82C20002318460C37BD46B6
:1057600080BC70470028004080B483B000AF7860F0
:105770007B6893F82C30012B01D1022327E07B6852
:10578000012283F82C207B68022283F82D20124B03
:10579000CA225A62104B53225A620F4B9B690E4A1F
:1057A00043F0800393610D4BD3F880300B4A43F4F0
:1057B0008023C2F88030084BFF225A627B680122A6
:1057C00083F82D207B68002283F82C2000231846C4
:1057D0000C37BD4680BC70470028004000080058C8
:1057E00080B582B000AF7860094B5B6D03F0400379
:1057F000002B05D0064B4022DA657868FCF74BFD9C
:105800007B68012283F82D2000BF0837BD4680BD8C
:105810000028004080B483B000AF786000BF0C3730
:10582000BD4680BC7047000080B487B000AFF86010
:10583000B9607A60074B7B61BB689B007A6913444F
:105840007B617B697A681A6000BF1C37BD4680BCEB
:10585000704700BF00B1004080B485B000AF7860F1
:105860003960074BFB603B689B00FA681344FB60A0
:10587000FB681B6818461437BD4680BC704700BFE4
:1058800000B1004080B483B000AF7860064B9B68E5
:1058900023F4006204497B6813438B6000BF0C371C
:1058A000BD4680BC704700BF0004005880B400AF04
:1058B000054BD3F89030044A43F40043C2F89030CB
:1058C00000BFBD4680BC70470004005880B400AFE4
:1058D000054BD3F89030044A23F40043C2F89030CB
:1058E00000BFBD4680BC70470004005880B400AFC4
:1058F000034B4FF400629A6100BFBD4680BC704705
:105900000004005880B400AF064B5B6903F002034B
:10591000022B01D1012300E000231846BD4680BCC4
:10592000704700BF0004005880B400AF064B5B69AD
:1059300003F00403042B01D1012300E000231846E7
:10594000BD4680BC704700BF0004005880B400AF63
:105950004FF0B043D3F894304FF0B04223F40043FB
:10596000C2F8943000BFBD4680BC704780B400AF21
:105970004FF0B043D3F8943003F48043B3F5804F35
:1059800001D1012300E000231846BD4680BC7047CA
:1059900080B483B000AF7860064BD3F890200549FF
:1059A0007B681343C1F8903000BF0C37BD4680BC04
:1059B000704700BF0008005880B584B000AF786021
:1059C0007B68002B03D10123FB73FB7B4BE000239F
:1059D000FB737B689B79DBB2002B05D17B680022CF
:1059E0005A717868FCF7DEF87B6802229A71FFF73B
:1059F000ADFF1F4B1A681346DB009B1A9B00DB0CA4
:105A0000642202FB03F3BB60BB68002B05D10123BA
:105A1000FB737B6801229A6007E0BB68013BBB60B7
:105A2000FFF7A4FF0346002BEED1FFF73FFF4FF433
:105A30008050FFF7ADFF4FF40060FFF723FFFFF743
:105A400055FFFB7B002B0AD17B681B68184600F0D2
:105A5000ADFA7B6801221A717B6800229A607B682C
:105A600001229A71FB7B18461037BD4680BD00BFEE
:105A7000A40F002080B586B000AFF8607A601A46A7
:105A80000B467B8113463B81FB689B79DBB2012B84
:105A90004AD1FB685B79012B01D1022345E0FB6809
:105AA00001225A71FB6802229A71F86800F04CFBDF
:105AB000FFF70CFF0D21F86800F098FA7B891B0AAC
:105AC0009BB2DBB21946F86800F090FA7B89DBB232
:105AD0001946F86800F08AFA0023BB820AE0BB8A04
